:020000040800F2
:10000000C0060020A10100088D3E0008D93A000872
:10001000893E0008D5080008B5400008000000002F
:10002000000000000000000000000000933E0008F7
:10003000E908000800000000913E0008953E000815
:10004000BB010008BB010008BB010008BB010008A0
:10005000BB010008BB010008BB010008BB01000890
:10006000BB010008BB010008BB010008D90800085B
:10007000BB010008BB010008BB010008BB01000870
:10008000BB010008BB0100084D060008BB010008C9
:10009000BB010008BB010008BB010008BB01000850
:1000A000BB010008B13E0008BB010008BB0100080D
:1000B000C13E00080000000000000000BB01000875
:1000C000BB010008BB010008BB01000800000000E4
:1000D000BB010008BB010008BB010008BB01000810
:1000E000BB010008BB010008BB01000800000000C4
:1000F0000000000000000000000000000000000000
:10010000000000000000000000000000BB0100082B
:100110000000000000000000BB010008000000001B
:1001200000000000000000000000000000000000CF
:1001300000000000000000000000000000000000BF
:10014000BB010008BB010008000000000000000027
:10015000000000000000000000000000000000009F
:10016000BB010008BB010008BB010008BB0100087F
:10017000BB010008000000000000000000000000BB
:1001800000000000BB010008DFF810D000F04CFABE
:1001900000F07EF800480047D9590008C00600204A
:1001A0000648804706480047FEE7FEE7FEE7FEE711
:1001B000FEE7FEE7FEE7FEE7FEE7FEE79D3E0008FE
:1001C000890100082DE9F05F0546002092469B4614
:1001D00088460646814640241BE02846414647465D
:1001E000224600F020F853465A46C01A914110D3D7
:1001F00011461846224600F0F9F82D1A67EB01085F
:100200004F4622460120002100F0F0F817EB0009CC
:100210004E41201EA4F10104DFDC484631462A4647
:100220004346BDE8F09F202A04DB203A21FA02F081
:100230000021704721FA02F3D040C2F12002914020
:1002400008431946704740EA01039B0703D009E0C1
:1002500008C9121F08C0042AFAD203E011F8013BB2
:1002600000F8013B521EF9D27047D2B201E000F80B
:10027000012B491EFBD270470022F6E710B513464A
:100280000A4604461946FFF7F0FF204610BD00005D
:1002900070B5054C054D03E0206820448047241DBF
:1002A000AC42F9D170BD0000445B0008485B000817
:1002B0002DE9F04D81EA030404F0004B21F00045E4
:1002C00014464FF0000A23F0004150EA050220D006
:1002D00054EA01021DD0C5F30A570246C5F31303C1
:1002E000C1F31300C1F30A5640F4801543F48013A0
:1002F000A7EB0608101BD64608F2FD3873EB050085
:1003000002D308F1010801E092185B41B8F1000F37
:1003100003DA00200146BDE8F08D00204FF4801183
:10032000064684460EE0171B73EB050705D3121B28
:1003300063EB050306434CEA010C49084FEA300021
:1003400092185B4150EA0107EDD152EA030012D046
:1003500082EA040083EA0501084305D0101BAB4183
:1003600006D20122002306E000224FF0004302E003
:100370006FF0010253101AEB06004CEB085110EB22
:100380000A0041EB0B01BDE8F04D00F09EB800F013
:10039000004230F000400AD0C10D01F56071C0F399
:1003A000160042EA0151C20840071143704700207D
:1003B0000146704701F0004330B421F0004150EA9B
:1003C000010206D00A0DA2F56072C1F31301002AE2
:1003D00002DC30BC00207047440F44EAC104C10075
:1003E000E01830BC00EBC25000F00FB8202A04DB4C
:1003F000203A00FA02F1002070479140C2F1200338
:1004000020FA03F31943904070470029A8BF7047B2
:10041000401C490008BF20F00100704710B4B0FA3A
:1004200080FC00FA0CF050EA010404BF10BC7047D5
:1004300049B1CCF1200421FA04F411FA0CF118BFEF
:10044000012121430843A3EB0C01CB1D4FEA0061BE
:100450004FEA102042BF002010BC704700EBC35091
:1004600010440029A4BF10BC7047401C490008BFBD
:1004700020F0010010BC7047F0B400F0004221F001
:10048000004120F00040CE0DC30DC1F3160141F430
:100490000001C0F316004C42154640F40000761EE1
:1004A00009E010EB440002D582F00042404288424D
:1004B000F7D840005B1EB342F9DA18B1F0BC002156
:1004C000FFF7ACBF2846F0BC704710B5141E73F19F
:1004D000000408DA401C41F1000192185B411A4304
:1004E00001D120F0010010BD2DE9F04D92469B4650
:1004F00011B1B1FA81F202E0B0FA80F220329046F6
:10050000FFF774FF04460F4640EA0A0041EA0B0178
:1005100053465A46084313D0114653EA010019D0F6
:10052000C8F140025046FFF77EFE05460E46504693
:1005300059464246FFF75AFF084305D0012004E020
:1005400020463946BDE8F08D0020054346EAE076B6
:100550002C4337430A986305E40AA0EB0800002205
:10056000FD0A44EA47540A3002D500200146E9E773
:10057000010510196941DDE9084500196941BDE827
:10058000F04DA2E72DE9F04D00231A461B1A8A41CF
:1005900003DB00200146BDE8F08DC1F30A52C1F330
:1005A000130141F480154FF0000BD10702D1001860
:1005B0006D41521E0027044640F2FF11384601EB00
:1005C000620A3E468046024600204FF48011FFF743
:1005D0002AFEC2197141BB1846EB0100B4EB030CB3
:1005E00075EB000C04D3E41A65EB000517460E46C4
:1005F000241908F101006D4180463428E3DDF91922
:1006000046EB0600091BA84103D24FF0FF32134608
:1006100001E0002213461BEB070046EB0A51BDE840
:10062000F04DFFF752BF0000064C074D06E0E068B2
:1006300040F0010394E8070098471034AC42F6D329
:10064000FFF7A6FD245B0008445B000810B54FF4DB
:1006500000414FF0904001F06DFB044608219548A1
:1006600001F068FB44EA40044FF48061914801F0D6
:1006700061FB44EA800090490870904800F022FE37
:1006800001218E4800F08CFB8D49096848620221E7
:100690008A4800F085FB8A490968886203218748F7
:1006A00000F07EFB86490968C862864800780B28FE
:1006B00071DA8448007805282FDD81480068D0ED84
:1006C000410A7F48006890ED090AB8EE400A30EE12
:1006D000800A7B48006880ED410A79480068D0EDC7
:1006E000420A7748006890ED0A0AB8EE400A30EEF8
:1006F000800A7348006880ED420A71480068D0EDB6
:10070000430A6F48006890ED0B0AB8EE400A30EEDD
:10071000800A6B48006880ED430A6A480078401CF4
:1007200068490870084600780B2832D16448006890
:1007300090ED410AF1EE040A80EE201A604800684C
:1007400080ED411A5E48006890ED420AF1EE040A1D
:1007500080EE201A5A48006880ED421A5848006816
:1007600090ED430AF1EE040A80EE201A5448006826
:1007700080ED431A01229102534801F0E3FA01226D
:10078000D102514801F0DEFA012211034E4801F076
:10079000D9FA8EE0FFE748480078082843D2DFE81E
:1007A00000F0040B131B232B333B9FED480A4448F6
:1007B000006880ED4D0A36E0454890ED050A404856
:1007C000006880ED4D0A2EE0414890ED030A3C4858
:1007D000006880ED4D0A26E03D4890ED040A384857
:1007E000006880ED4D0A1EE0394890ED010A34485A
:1007F000006880ED4D0A16E0354890ED000A30485B
:10080000006880ED4D0A0EE0314890ED020A2C4858
:10081000006880ED4D0A06E09FED2C0A284800682C
:1008200080ED4D0A00BF00BF25480068D0ED410AA9
:100830002348006890ED090AB8EE400A30EEC00A7D
:10084000F7EE000A20EE200A1D48006880ED060A37
:100850001B480068D0ED420A1948006890ED0A0A6A
:10086000B8EE400A30EEC00A1548006880ED070A6D
:100870001348006890ED060AB1EE400A104800687F
:10088000D0ED070A30EE600A0D48006880ED080AD6
:100890000B48006804F066FC09480068807820B9BD
:1008A0000748006803F056FF03E00548006804F0BD
:1008B000C3F910BD0004004800000020940100208E
:1008C000240000204500002000080048000000002F
:1008D0002C00002000BFFEE710B5024801F060F8D0
:1008E00010BD0000E4010020704772B600BFFEE7B3
:1008F000F0B595B002460026002000900025106952
:1009000000B100BFC868012800D000E000BF00BFF0
:1009100092F83C00012802D1022015B0F0BD012060
:1009200082F83C0000BF106910B1886901281FD10E
:100930004868012816D1086A012807D00F68086A9C
:1009400040EA07204F6A3843054302E0086845EA59
:1009500000251068C06CF94F384028431768F864C8
:10096000956443E0106C40F02000106401263DE0E7
:10097000D06CA8B98F69D76400209064086A0128F8
:1009800009D08869401E0F6A38434F6A3843976C14
:100990003843906404E0906C8F697F1E3843906404
:1009A0000F7907EB47077F00BF1C4FF01F0C0CFAB5
:1009B00007FC906C20EA0C0091F804C00CEB4C0C86
:1009C0004FEA4C0C0CF1020C0F6807FA0CF7384395
:1009D0009064D06C401ED064D06C38B91068C06C84
:1009E000D64F3840976C38431768F86410688068B1
:1009F000C0F3C000F8B9487F60B9887F40050F7F19
:100A000040EA07501768FF6827F440173843176813
:100A1000F86010E01068C06820F440108F7F40EA52
:100A200047501768F860087F012804D1106C40F027
:100A30002000106401261068806800F00C0008B1E6
:100A4000012000E00020002875D1086A012809D1A2
:100A50001068C06820F000704F7F40EA4760176858
:100A6000F8600DE01068C06820F000701768F8604A
:100A7000487F012804D1106C40F02000106401264A
:100A800008680A2816D3106880690F780A3F07EBB8
:100A9000470C072707FA0CF7B84391F800C0ACF1F0
:100AA0000A0C0CEB4C0C8F6807FA0CF738431768EC
:100AB000B86112E0106840690F7807EB470C072710
:100AC00007FA0CF7B84391F800C00CEB4C0C8F6898
:100AD00007FA0CF738431768786148691768FF68A8
:100AE000C7F3C1077F0000FA07F40869012806D0A0
:100AF000022812D003281FD0042839D12AE0106818
:100B0000006E8F4F38400F784FF0004C4CEA8767EB
:100B1000274338431768386663E01068406E884F93
:100B200038400F784FF0004C4CEA87672743384332
:100B30001768786655E055E01068806E804F384041
:100B40000F784FF0004C4CEA87672743384317680B
:100B5000B86646E01068C06E794F38400F784FF0A5
:100B6000004C4CEA8767274338431768F86638E03B
:100B70001068006E00F0F8400F78B0EB876F05D179
:100B80001068006E20F00040176838661068406EEC
:100B900000F0F8400F78B0EB876F05D11068406E19
:100BA00020F00040176878661068806E00F0F8400A
:100BB0000F78B0EB876F05D11068806E20F0004091
:100BC0001768B8661068C06E00F0F8400F78B0EB98
:100BD000876F05D11068C06E20F000401768F86676
:100BE00000BF00BF1068806800F00300012806D134
:100BF0001068006800F0010008B1012000E000204A
:100C0000002871D1C86801280CD01068D0F8B00055
:100C100091F800C0012707FA0CF7B8431768C7F826
:100C2000B0003CE01068D0F8B00091F800C0012797
:100C300007FA0CF738431768C7F8B00008680A28A5
:100C400017D3106887690878093800EB400C072033
:100C500000FA0CF027EA00000F78093F07EB47077E
:100C6000D1F808C00CFA07FC40EA0C001768B8611C
:100C700015E0106840690F787F1C07EB470C0727C9
:100C800007FA0CF7B84391F800C00CF1010C0CEB1B
:100C90004C0C8F6807FA0CF7384317687861294BBA
:100CA0000868102803D1986800F4000068B108684B
:100CB000112803D1986800F0807030B108681228BC
:100CC00066D1986800F4800070B900200190106827
:100CD000806800F00300012807D11068006800F068
:100CE000010010B1012001E04CE0002028BB019878
:100CF00070B10198806800F00300012806D10198C6
:100D0000006800F0010008B1012000E00020A0B957
:100D10000868102823D11068B0F1A04F1FD198683F
:100D200040F40000986008480068084FB0FBF7F0F6
:100D300000EB8000400000900DE024E000200882DD
:100D400000F0FF83000300502000002040420F000D
:100D50000098401E009000980028F9D118E008681B
:100D6000112808D11068B0F1A04F04D1986840F064
:100D7000807098600CE00868122809D1986840F4E7
:100D80008000986004E0106C40F0200010640126A0
:100D900000BF002082F83C0000BF3046BDE5704730
:100DA00002460020012911D002290BD0032905D0C9
:100DB00004290CD11368D3F88C000CE01368D3F825
:100DC000880008E01368D3F8840004E000BF1368CB
:100DD000D3F8800000BF00BF7047704770B504466D
:100DE000002520688068C0F3C00000285ED100BFE5
:100DF00094F83C00012801D1022070BD012084F844
:100E00003C0000BF204603F0B7FB0546002D48D14B
:100E1000206C42F20101884340F480502064206C31
:100E200020F480102064206C00F4807008B9002049
:100E3000606400BF002084F83C0000BF602021688F
:100E400008602068C06800F4001028B1206840687D
:100E500040F4806021684860606908280CD12068EF
:100E6000406820F02000216848602068406840F019
:100E700040002168486006E02068406840F060005B
:100E80002168486000BF00BF2068C06800F00070A3
:100E900068B900BF2068806840F008002168886059
:100EA00005E000BF002084F83C0000E00225284651
:100EB000A3E7704770470000F0B595B002460025E3
:100EC00000200090C868012800D000E000BF00BFEB
:100ED00092F83C00012802D1022015B0F0BD01209B
:100EE00082F83C0000BF10688068C0F380000028D2
:100EF00079D14868052812D21068006B0E7906EB8C
:100F0000460677001F26BE40B0430F7907EB470720
:100F10007F000E68BE4030431668306343E0486887
:100F20000A2814D21068406B0E79761F06EB46062D
:100F300077001F26BE40B0430F797F1F07EB47079E
:100F40007F000E68BE403043166870632BE048682F
:100F50000F2814D21068806B0E790A3E06EB460605
:100F600077001F26BE40B0430F790A3F07EB4707C3
:100F70007F000E68BE4030431668B06313E010680F
:100F8000C06B0E790F3E06EB460677001F26BE406B
:100F9000B0430F790F3F07EB47077F000E68BE4055
:100FA00030431668F0631068806800F00C0008B1E8
:100FB000012000E00020002870D108680A2813D31F
:100FC000106880690E780A3E06EB46070726BE4089
:100FD000B0430F780A3F07EB47078E68BE403043A7
:100FE0001668B06110E055E1106840690E7806EBB4
:100FF00046070726BE40B0430F7807EB47078E68C9
:10100000BE4030431668706148691668F668C6F3DA
:10101000C106760000FA06F40869012806D0022805
:1010200012D003281ED0042839D129E01068006EA0
:101030009E4E30400E784FF0004747EA86662643C2
:1010400030431668306663E01068406E974E30405B
:101050000E784FF0004747EA86662643304316680D
:10106000706655E01068806E904E30400E784FF0FC
:10107000004747EA8666264330431668B06647E075
:101080001068C06E894E30400E784FF0004747EA36
:101090008666264330431668F06639E039E010680A
:1010A000006E00F0F8400E78B0EB866F05D1106846
:1010B000006E20F00040166830661068406E00F048
:1010C000F8400E78B0EB866F05D11068406E20F0C6
:1010D0000040166870661068806E00F0F8400E7868
:1010E000B0EB866F05D11068806E20F00040166866
:1010F000B0661068C06E00F0F8400E78B0EB866FF6
:1011000005D11068C06E20F000401668F06600BF80
:1011100000BF1068806800F00300012806D1106845
:10112000006800F0010008B1012000E00020002864
:1011300076D1C86801280AD01068D0F8B0000F78BE
:101140000126BE40B0431668C6F8B00032E0106811
:10115000D0F8B0000F780126BE4030431668C6F8BC
:10116000B00008680A2813D310688669087809381F
:1011700000EB40070720B84026EA00000E78093E41
:1011800006EB46068F68B74038431668B06111E039
:10119000106840690E78761C06EB46070726BE40AD
:1011A000B0430F787F1C07EB47078E68BE40304383
:1011B000166870613E4B0868102803D1986800F4E7
:1011C000000068B10868112803D1986800F08070A9
:1011D00030B10868122862D1986800F48000F8B92C
:1011E000002001901068806800F00300012806D1FB
:1011F0001068006800F0010008B1012000E0002044
:10120000C8BB019878B10198806800F003000128FC
:1012100007D10198006800F0010010B1012001E041
:1012200031E0002038BB0868102818D11068B0F1F0
:10123000A04F14D1986840F4000098601D480068E1
:101240001D4EB0FBF6F000EB80004000009002E085
:101250000098401E009000980028F9D11FE008680F
:10126000112809D11068B0F1A04F05D1986840F05D
:101270008070986013E007E0086812280FD1986822
:1012800040F4800098600AE0106C40F02000106488
:10129000012504E0106C40F020001064012500BF1F
:1012A000002082F83C0000BF284616E600F0FF83CD
:1012B000000300502000002040420F00704770479C
:1012C000704700002DE9F041044600270026B04693
:1012D0002068006800F00400042805D120684068F8
:1012E00000F0040004280BD02068006800F008001B
:1012F000082843D12068406800F0080008283DD144
:10130000206C00F0100018B9206C40F400702064CC
:101310002068C6682068C06800F44060F8B906F428
:101320000050E0B92068006800F0080008281FD1CC
:1013300020688068C0F3800090B92068406820F081
:101340000C0021684860206C20F480702064206CC0
:1013500000F4805018B9206C40F00100206407E0D0
:10136000206C40F010002064606C40F0010060646C
:101370002046FFF7A3FF0C20216808602068006862
:1013800000F02000202805D12068406800F02000EF
:1013900020280BD02068006800F0400040284DD184
:1013A0002068406800F04000402847D1206C40F49D
:1013B000005020642068C6682068C06C00F0C0003F
:1013C00068BB06F0007038B12068C06800F4406067
:1013D00028BB06F4005010BB2068006800F04000F5
:1013E000402825D12068D0F80C8008F40010B0B94E
:1013F00020688068C0F3C00090B92068406820F081
:10140000600021684860206C20F480502064206CCB
:1014100000F4807018B9206C40F00100206407E0EF
:10142000206C40F010002064606C40F001006064AB
:101430002046FFF7B4FC602021680860206800683F
:1014400000F0800080280FD12068406800F0800004
:10145000802809D1206C40F480302064204600F0C0
:10146000ABF98020216808602068006800F4807073
:10147000B0F5807F11D12068406800F48070B0F52D
:10148000807F0AD1206C40F4003020642046FFF7B2
:1014900010FD4FF48070216808602068006800F437
:1014A0000070B0F5007F11D12068406800F4007032
:1014B000B0F5007F0AD1206C40F4802020642046E3
:1014C000FFF7F8FC4FF4007021680860206800689E
:1014D00000F0100010282BD12068406800F01000A8
:1014E000102825D1606B012801D1012710E0204D83
:1014F000A86800F01F0030B92068C06800F0010043
:1015000030B1012704E0A86800F4404000B1012791
:10151000012F0AD1206C40F480602064606C40F0A0
:10152000020060642046FFF7CBFE102021680860AF
:101530002068006800F48060B0F5806F15D12068E5
:10154000406800F48060B0F5806F0ED1206C40F4EC
:1015500080402064606C40F0080060644FF480605C
:10156000216808602046FFF738FCBDE8F0810000E4
:1015700000030050F0B595B0044600260025002079
:10158000009014B9012015B0F0BD206918B12020D9
:10159000005D00B100BF206C00F01000002853D1A6
:1015A000206C98BB002060640021E164A06484F892
:1015B0003C00204600F002F92068806800F080506E
:1015C00020BB204603F020F80646206C00F01000F7
:1015D000E0B9DEB9206C20F4885040F002002064AD
:1015E0002068806820F0405021688860206880680A
:1015F00040F08050216888606B4800686B49B0FB00
:10160000F1F000EB80004000009003E005E000985E
:10161000401E009000980028F9D12068806800F0F2
:10162000805030B12068806800F00050B0F1005F59
:101630000AD1206C20F0020040F010002064606CA1
:1016400040F0010060640126206C00F010000028CA
:101650007ED1002EFCD120688068C0F38000002875
:10166000F6D1206C20F4807040F002002064504FCE
:10167000002001902068806800F00300012806D156
:101680002068006800F0010008B1012000E000209F
:10169000B0B9019870B10198806800F0030001288A
:1016A00006D10198006800F0010008B1012000E0B7
:1016B000002028B9B86820F4403061680843B86059
:1016C000606B012802D04FF4805100E00021607E61
:1016D00041EA4030E1680843A168084305432020FF
:1016E000005D012813D1607E38B9A08C401E4FF4F4
:1016F000803141EA4040054309E0206C20F00200BF
:1017000040F020002064606C40F001006064A06A3A
:10171000012803D0D4E90A01084305432068806802
:1017200000F00C0008B1012000E0002068B920683A
:10173000C06844F2020188432168C860207E8103AA
:1017400094F8300041EA400005432068C06800E09A
:1017500020E01849084028432168C8602069012812
:1017600009D12068006B20F00F00E169491E084391
:101770002168086305E02068006B20F00F002168F5
:10178000086300206064206C20F0020040F001003B
:10179000206406E0206C20F0020040F0100020647D
:1017A00001263046EFE600002000002040420F00F6
:1017B0000003005007C0F0FF7047000010B586B06E
:1017C0000446142101A8FEF757FD2068B0F1A04F90
:1017D0005FD100BF3048406940F080502E494861D9
:1017E0000846406900F08050009000BF00BF00BF75
:1017F0000846406940F4002048610846406900F40A
:101800000020009000BF00BF00BF0846406940F4C0
:10181000003048610846406900F40030009000BF85
:1018200000BF07200190032002900020039001A92F
:101830001A4800F0A1F903200190029000200390C3
:1018400001A94FF0904000F097F91548154908603C
:10185000002048600021134881608021C160890018
:10186000016189004161202181610021C16100F095
:101870000AF908B1FFF739F800BF0A48A0634462CB
:1018800000BF00221146122000F0DEFA122000F004
:10189000CBFA06B010BD000000100240000800485E
:1018A00008000240E40100202DE9F04104460D4605
:1018B0001646002720688068C0F38000002865D1A4
:1018C00000BF94F83C00012802D10220BDE8F0815D
:1018D000012084F83C0000BF204602F04DFE074680
:1018E000002F4ED1206C40F60161884340F4807097
:1018F0002064206C20F4801020642068C06800F010
:10190000007028B1206C20F4005040F48050206416
:10191000206C00F48050B0F5805F04D1606C20F042
:101920000600606401E00020606400BF002084F8CD
:101930003C0000BF1748A16B88621748A16BC862C2
:101940001648A16B08631C20216808602068406865
:1019500040F01000216848602068C06840F0010035
:101960002168C860226802F1400133462A46A06B14
:1019700000F0B4F82068806840F0040021688860B6
:1019800005E000BF002084F83C0000E00227384654
:101990009CE70000BF4600080D470008A14600086C
:1019A00070B50446E06B05682068066894F840103E
:1019B000042088402840D0B106F00400B8B1206867
:1019C000006800F0200028B92068006820F00400BA
:1019D0002168086094F8401004208840E16B48605A
:1019E000E06A00284ED02046E16A88474AE094F831
:1019F000401002208840284008B306F00200F0B1F1
:101A00002068006800F0200040B92068006820F0DD
:101A10000A0021680860012084F8210094F8401031
:101A200002208840E16B486000BF002084F820005D
:101A300000BFA06A30B32046A16A884722E094F82C
:101A40004010082088402840E0B106F00800C8B1E6
:101A50002068006820F00E002168086094F84010AB
:101A600001208840E16B48600120A06384F82100D8
:101A700000BF002084F8200000BF206B10B120467A
:101A8000216B884770BD70B5044600250CB9012054
:101A900070BD022084F821002068056843F6F070CC
:101AA0008543D4E901010843E168084321690843FB
:101AB00061690843A1690843E16908430543206857
:101AC0000560204602F088FB0020A063012084F816
:101AD0002100002084F8200000BFD9E72DE9F04163
:101AE00004460D4616461F464FF0000800BF94F806
:101AF0002000012802D10220BDE8F081012084F8F5
:101B0000200000BF94F8210001282CD1022084F885
:101B100021000020A0632068006820F001002168F7
:101B200008603B4632462946204602F03FFBE06A09
:101B300030B12068006840F00E00216808600BE0BA
:101B40002068006840F00A0021680860206800688A
:101B500020F00400216808602068006840F001005F
:101B60002168086006E000BF002084F8200000BF64
:101B70004FF002084046BFE778B503460022C6E0B2
:101B8000012696400D6805EA0604002C72D04D68C7
:101B9000012D08D04D68022D05D04D68112D02D0C1
:101BA0004D68122D13D1986856000325B540A843FF
:101BB0005600CD68B5402843986058680125954087
:101BC000A8430D79C5F30015954028435860D8689F
:101BD00056000325B540A84356008D68B5402843FC
:101BE000D8604D68022D02D04D68122D13D1D60851
:101BF00003F1200555F826005507EE0E0F25B540D8
:101C0000A8435607F60E0D69B5402843D60803F1E0
:101C1000200545F82600186856000325B540A8435E
:101C20000D7905F003055600B540284318604D684E
:101C300005F08055B5F1805F68D100BF374DAD69C3
:101C400045F00105354EB5613546AD6905F0010534
:101C5000009500BF00BF4FEAB635960855F826003C
:101C600095072E0F0F25B540A843B3F1904F02D131
:101C7000002510E04AE02A4DAB4201D101250AE0DF
:101C8000284DAB4201D1022505E0274DAB4201D1E1
:101C9000032500E005259607360FB5402843234D60
:101CA000960845F82600224D2868A0434D6805F4A3
:101CB0008035B5F5803F00D120431D4D28602D1D96
:101CC0002868A0434D6805F40035B5F5003F00D104
:101CD0002043174D2D1D28602D1D2868A0434D68F9
:101CE00005F48015B5F5801F00D12043104D08354F
:101CF00028602D1D2868A0434D6805F40015B5F532
:101D0000001F00D120430A4D0C352860521C0D687D
:101D1000D540002D7FF434AF78BD000000100240A4
:101D20000004004800080048000C0048080001407A
:101D300000040140024613690B400BB1012000E092
:101D4000002070470AB1816100E0816270470000A5
:101D50000148006870470000140000200348006834
:101D600003490978084401490860704714000020BD
:101D70001C00002010B50848006840F0100006491B
:101D80000860032000F09EF8002000F007F800F043
:101D90002BF8002010BD00000020024070B5044662
:101DA0000E4800784FF47A71B1FBF0F00C490968E5
:101DB000B1FBF0F5284601F0ABF808B1012070BD89
:101DC000102C07D200222146501E00F03DF8054895
:101DD000046001E00120F2E70020F0E71C00002091
:101DE000200000201800002008B500BF0D488069C1
:101DF00040F001000B4988610846806900F001004D
:101E0000009000BF00BF00BF0846C06940F080508E
:101E1000C8610846C06900F08050009000BF00BF54
:101E200008BD00000010024001460846002809DBFA
:101E300000F01F0301229A4043099B0003F1E023B5
:101E4000C3F8002100BF70472DE9F05F80460D46C2
:101E50001646002702F076FC074639462A463346E6
:101E600001F00700C0F1070ABAF1040F02D94FF0E0
:101E7000040A01E0C0F1070AD14600F1040ABAF1F0
:101E8000070F02D24FF0000A01E0A0F1030AD44686
:101E90004FF0010A0AFA09FAAAF1010A0AEA020A4B
:101EA0000AFA0CFA4FF0010B0BFA0CFBABF1010B29
:101EB0000BEA030B4AEA0B042146404602F02EFCD3
:101EC000BDE8F09F00BF00F00702064B19684FF60F
:101ED000FF031940044B0B4343EA0221014B1960F5
:101EE00000BF70470CED00E00000FA05F8B50446AD
:101EF000002600250027206800F48030B0F5803FE0
:101F000074D1A448C06900F0805070B900BFA148E6
:101F1000C06940F080509F49C8610846C06900F020
:101F20008050009000BF00BF01279B48006800F46C
:101F30008070B0B99848006840F480709649086095
:101F4000FFF706FF064606E0FFF702FF801B642846
:101F500001D90320F8BD9048006800F48070002883
:101F6000F2D08C48006A00F44075002D6CD0A08837
:101F700000F44070A84267D08648006A20F440759B
:101F80000120010491FAA1F1B1FA81F1834A02EB37
:101F90008101C1F8000400204FF4803191FAA1F1D1
:101FA000B1FA81F102EB8101C1F8000479480562C0
:101FB00005F00100B8B3FFF7CBFE064608E0FFF7D7
:101FC000C7FE801B41F28831884201D90320C1E756
:101FD0004020022191FAA1F1B1FA81F108430121D7
:101FE000B1EB601F03D16B4800681FE03BE040206D
:101FF000022191FAA1F1B1FA81F108430221B1EB7A
:10200000601F02D16348006A10E04020022191FA6B
:10201000A1F1B1FA81F108430421B1EB601F03D1B2
:102020005C48406802E00FE05A48406A40210222C2
:1020300092FAA2F2B2FA82F2114301F01F020121D8
:10204000914008400028BAD05248006A20F44070FD
:10205000616808434F490862012F04D10846C069EE
:1020600020F08050C861207800F0010038B1494864
:10207000006B20F00300A1680843464908632078FC
:1020800000F02000202807D14248006B20F010000B
:10209000E16808433F490863206800F40030B0F568
:1020A000003F07D13B48406820F48000216B084383
:1020B00038494860207800F04000402807D1354872
:1020C000006B20F020002169084332490863208812
:1020D00000F40040B0F5004F07D12E48006B20F00F
:1020E0004000616908432B490863208800F40070B0
:1020F000B0F5007F07D12748406820F40000E1696F
:10210000084324494860207800F08000802807D1E7
:102110002048C06A20F4F870A16908431D49C862CC
:10212000208800F48050B0F5805F07D11948006B1B
:1021300020F48070216A084316490863206800F47F
:102140008020B0F5802F07D11248006B20F480600A
:10215000616A08430F490863206800F40020B0F565
:10216000002F07D10B48006B20F40060A16A0843E0
:1021700008490863206800F48010B0F5801F07D17B
:102180000448006B20F40050E16A084301490863E9
:102190000020DFE6001002400070004000004242D4
:1021A00070B504460D4600260CB9012070BDA2484A
:1021B000006800F00700A8420ED29F48006820F097
:1021C000070028439C4908600846006800F00700A3
:1021D000A84201D00120E9E7207800F0020002289F
:1021E00007D19648406820F0F000A1680843934961
:1021F0004860207800F0010000287CD06068012849
:102200003BD12020010391FAA1F1B1FA81F10843F9
:102210000121B1EB601F02D1884800681DE0202039
:10222000010391FAA1F1B1FA81F108430221B1EB66
:10223000601F02D18148006A0FE02020010391FA5B
:10224000A1F1B1FA81F108430421B1EB601F02D181
:102250007A48406801E07948406A20210A0392FAEE
:10226000A2F2B2FA82F2114301F01F020121914061
:10227000084000287CD1012098E7606802283BD103
:102280002020010591FAA1F1B1FA81F10843012161
:10229000B1EB601F02D1694800681DE020200105F4
:1022A00091FAA1F1B1FA81F108430221B1EB601F6B
:1022B00002D16248006A0FE02020010591FAA1F1E5
:1022C000B1FA81F108430421B1EB601F02D15B48F0
:1022D000406801E05948406A20210A0592FAA2F2BA
:1022E000B2FA82F2114301F01F020121914008402D
:1022F000E8BB01205AE758E02020022191FAA1F121
:10230000B1FA81F108430121B1EB601F02D14B48C2
:1023100000681DE02020022191FAA1F1B1FA81F1BB
:1023200008430221B1EB601F02D14448006A0FE06C
:102330002020022191FAA1F1B1FA81F10843042190
:10234000B1EB601F02D13D48406801E03B48406A64
:102350002021022292FAA2F2B2FA82F2114301F093
:102360001F0201219140084008B901201EE7FFE744
:102370003248406820F00300616808432F494860F4
:10238000FFF7E6FC064608E0FFF7E2FC801B41F29F
:102390008831884201D9032008E72848406800F0C6
:1023A0000C006168B0EB810FEED12348006800F0AB
:1023B0000700A8420ED92048006820F007002843F3
:1023C0001D4908600846006800F00700A84201D0D7
:1023D0000120EBE6207800F00400042807D117481C
:1023E000406820F4E060E1680843144948602078C0
:1023F00000F00800082808D11048406820F4605018
:10240000216940EAC1000D49486000F01FF80B49FE
:10241000496801F0F001F02292FAA2F2B2FA82F2D7
:10242000D140074A515CC840064908600648006828
:10243000FFF7B4FC0020B9E6002002400010024083
:10244000EC5A000820000020180000202DE9F0417F
:102450000024002500270026A0461F48446804F0F9
:102460000C0078B3042802D008282DD102E0DFF850
:102470006C802CE004F470104FF4701191FAA1F10B
:10248000B1FA81F1C84016490E5C1348C06A00F0E9
:102490000F000F2191FAA1F1B1FA81F1C840114961
:1024A0000D5C04F4803040B12A4600230B481946E5
:1024B000FDF788FEA0FB067102E00B48A0FB067149
:1024C000B84604E0FFE700BFDFF8108000BF00BFA0
:1024D0004046BDE8F08100000010024000127A0082
:1024E000CC5A0008DC5A000800093D00F8B5044643
:1024F0000CB90120F8BD207800F0010000287BD045
:10250000FA48406800F00C0004280CD0F7484068F6
:1025100000F00C00082845D1F448406800F48030F1
:10252000B0F5803F3ED12020010391FAA1F1B1FA2C
:1025300081F108430121B1EB601F02D1EB48006833
:102540001DE02020010391FAA1F1B1FA81F10843C5
:102550000221B1EB601F02D1E448006A0FE02020A5
:10256000010391FAA1F1B1FA81F108430421B1EB21
:10257000601F02D1DD48406801E0DC48406A20214C
:102580000A0392FAA2F2B2FA82F2114301F01F0298
:102590000121914008400028B1D0606800282BD16B
:1025A0000120A7E700BF6068B0F5803F06D1CF48A3
:1025B000006840F48030CD49086029E0606858B96F
:1025C000CA48006820F48030C8490860084600689E
:1025D00020F4802008601BE06068B0F5A02F0CD1CB
:1025E000C248006840F48020C0490860084600687E
:1025F00040F4803008600BE0A1E0BC48006820F4A3
:102600008030BA4908600846006820F480200860DD
:1026100000BFB648C06A20F00F00A1680843B34964
:10262000C8626068A0B3FFF793FB054606E0FFF7BA
:102630008FFB401B642801D903205BE720200103A6
:1026400091FAA1F1B1FA81F108430121B1EB601FC8
:1026500002D1A64800681EE02020010391FAA1F1F2
:10266000B1FA81F108430221B1EB601F02D19F480A
:10267000006A10E02020010391FAA1F1B1FA81F182
:1026800008430421B1EB601F03D19848406802E081
:1026900010E09648406A20210A0392FAA2F2B2FAA8
:1026A00082F2114301F01F020121914008400028ED
:1026B000BDD044E0FFF74CFB054606E0FFF748FBC2
:1026C000401B642801D9032014E72020010391FA5C
:1026D000A1F1B1FA81F108430121B1EB601F02D1F0
:1026E000824800681DE02020010391FAA1F1B1FAAF
:1026F00081F108430221B1EB601F02D17B48006ADF
:102700000FE02020010391FAA1F1B1FA81F1084311
:102710000421B1EB601F02D17448406801E07348A6
:10272000406A20210A0392FAA2F2B2FA82F211431D
:1027300001F01F020121914008400028BED12078FD
:1027400000F0020002285CD16848406800F00C00EC
:1027500050B16648406800F00C00082852D1634828
:10276000406800F48030E8BB2020022191FAA1F1FA
:10277000B1FA81F108430121B1EB601F02D15B483E
:1027800000681DE02020022191FAA1F1B1FA81F147
:1027900008430221B1EB601F02D15448006A0FE0E8
:1027A0002020022191FAA1F1B1FA81F1084304211C
:1027B000B1EB601F02D14D48406801E04B48406AD0
:1027C0002021022292FAA2F2B2FA82F2114301F01F
:1027D0001F0201219140084028B12069012802D040
:1027E000012087E60EE04148006820F0F800F8225A
:1027F00092FAA2F2B2FA82F26169914008433B492F
:102800000860B1E0206970B3012191FAA1F0B0FA3B
:1028100080F0374A42F82010FFF79AFA054606E0A2
:10282000FFF796FA401B022801D9032062E6202018
:10283000022191FAA1F1B1FA81F108430121B1EB32
:10284000601F02D1294800681EE02020022191FA71
:10285000A1F1B1FA81F108430221B1EB601F03D16C
:102860002248006A10E02CE02020022191FAA1F118
:10287000B1FA81F108430421B1EB601F02D11B487A
:10288000406801E01948406A2021022292FAA2F22F
:10289000B2FA82F2114301F01F0201219140084077
:1028A0000028BDD01148006820F0F800F82292FA04
:1028B000A2F2B2FA82F26169914008430B490860C2
:1028C00052E00020012191FAA1F1B1FA81F1084A08
:1028D00042F82100FFF73CFA05460BE0FFF738FA13
:1028E000401B022806D9032004E600000010024025
:1028F000000042422020022191FAA1F1B1FA81F1B7
:1029000008430121B1EB601F02D1FB4800681DE0C4
:102910002020022191FAA1F1B1FA81F108430221AC
:10292000B1EB601F02D1F448006A0FE020200221C1
:1029300091FAA1F1B1FA81F108430421B1EB601FD2
:1029400002D1ED48406801E0EB48406A20210222B4
:1029500092FAA2F2B2FA82F2114301F01F020121AF
:10296000914008400028B9D1207800F008000828DC
:1029700051D1A06980B3012191FAA1F0B0FA80F0A1
:10298000DE4A02EB8000C0F88014FFF7E1F905464B
:1029900006E0FFF7DDF9401B022801D90320A9E575
:1029A0006020022191FAA1F1B1FA81F108430121DD
:1029B000B1EB601F02D1D04800681EE06020022108
:1029C00091FAA1F1B1FA81F108430221B1EB601F44
:1029D00003D1C948006A10E01EE06020022191FA8C
:1029E000A1F1B1FA81F108430421B1EB601F02D1DA
:1029F000C148406801E0C048406A6021022292FA62
:102A0000A2F2B2FA82F2114301F01F0201219140B9
:102A100008400028BDD04FE00020012191FAA1F12B
:102A2000B1FA81F1B54A02EB8101C1F88004FFF7E8
:102A30008FF9054606E0FFF78BF9401B022801D904
:102A4000032057E56020022191FAA1F1B1FA81F14A
:102A500008430121B1EB601F02D1A74800681DE0C7
:102A60006020022191FAA1F1B1FA81F1084302211B
:102A7000B1EB601F02D1A048006A0FE06020022184
:102A800091FAA1F1B1FA81F108430421B1EB601F81
:102A900002D19948406801E09748406A60210222CB
:102AA00092FAA2F2B2FA82F2114301F01F0201215E
:102AB000914008400028BED1207800F0040004288E
:102AC00073D100278C48C06900F0805070B900BFF6
:102AD0008948C06940F080508749C8610846C0698C
:102AE00000F08050009000BF00BF012784480068BC
:102AF00000F48070B0B98248006840F4807080496A
:102B00000860FFF725F9054606E0FFF721F9401BAD
:102B1000642801D90320EDE47948006800F480704E
:102B20000028F2D000BFE068012806D17248006A90
:102B300040F001007049086227E0E06858B96E482B
:102B4000006A20F001006C4908620846006A20F023
:102B50000400086219E0E06805280BD16648006AA5
:102B600040F00400644908620846006A40F0010031
:102B700008620AE06048006A20F001005E490862CD
:102B80000846006A20F00400086200BFE068B8B39D
:102B9000FFF7DEF8054609E0FFF7DAF8401B41F2DF
:102BA0008831884202D90320A4E48BE0402002212E
:102BB00091FAA1F1B1FA81F108430121B1EB601F53
:102BC00002D14D4800681EE04020022191FAA1F197
:102BD000B1FA81F108430221B1EB601F02D14648EE
:102BE000006A10E04020022191FAA1F1B1FA81F1CE
:102BF00008430421B1EB601F03D13F48406802E065
:102C000010E03D48406A4021022292FAA2F2B2FA54
:102C100082F2114301F01F02012191400840002877
:102C2000BAD046E0FFF794F8054608E0FFF790F8C1
:102C3000401B41F28831884201D903205AE44020E8
:102C4000022191FAA1F1B1FA81F108430121B1EB1E
:102C5000601F02D1284800681DE04020022191FA3F
:102C6000A1F1B1FA81F108430221B1EB601F02D159
:102C70002148006A0FE04020022191FAA1F1B1FA47
:102C800081F108430421B1EB601F02D11A4840686A
:102C900001E01948406A4021022292FAA2F2B2FAF7
:102CA00082F2114301F01F020121914008400028E7
:102CB000BCD1012F05D11048C06920F080500E49C9
:102CC000C86100BFE069002874D00B48406800F07C
:102CD0000C0008286FD0E06902286DD100204FF069
:102CE000807191FAA1F1B1FA81F1044A42F8210010
:102CF000FFF72EF805460CE00010024000004242AB
:102D000000700040FFF724F8401B022801D903207F
:102D100047E42020010591FAA1F1B1FA81F10843BD
:102D20000121B1EB601F02D1774800681DE020202F
:102D3000010591FAA1F1B1FA81F108430221B1EB49
:102D4000601F02D17048006A0FE02020010591FA4F
:102D5000A1F1B1FA81F108430421B1EB601F02D166
:102D60006948406801E06848406A20210A0592FAF3
:102D7000A2F2B2FA82F2114301F01F020121914046
:102D800008400028BED1D4E9081008435E494968CC
:102D900021F4741108435C4948600120010691FA4E
:102DA000A1F1B1FA81F1594A42F82100FEF7D0FFB2
:102DB000054609E0A5E092E041E0FEF7C9FF401BAF
:102DC000022801D9032038E42020010591FAA1F15D
:102DD000B1FA81F108430121B1EB601F02D14A48E9
:102DE00000681DE02020010591FAA1F1B1FA81F1FE
:102DF00008430221B1EB601F02D14348006A0FE093
:102E00002020010591FAA1F1B1FA81F108430421D2
:102E1000B1EB601F02D13C48406801E03A48406A8B
:102E200020210A0592FAA2F2B2FA82F2114301F0CD
:102E30001F020121914008400028BED061E000201F
:102E40004FF0807191FAA1F1B1FA81F12F4A42F865
:102E50002100FEF77DFF054606E0FEF779FF401BE7
:102E6000022801D903202FE42020010591FAA1F1C5
:102E7000B1FA81F108430121B1EB601F02D1224870
:102E800000681DE02020010591FAA1F1B1FA81F15D
:102E900008430221B1EB601F02D11B48006A0FE01A
:102EA0002020010591FAA1F1B1FA81F10843042132
:102EB000B1EB601F02D11448406801E01248406A3B
:102EC00020210A0592FAA2F2B2FA82F2114301F02D
:102ED0001F020121914008400028BED111E0E069A5
:102EE000012800D17DE40848466806F48031206A54
:102EF000814204D106F47011606A814201D0012040
:102F00006FE400206DE40000001002400000424227
:102F100070B504462546681EB0F1807F01D30120BC
:102F20000FE0681E4FF0E02148610F214FF0FF30A5
:102F300001F0F4FB00204FF0E021886107200861D8
:102F4000002070BD704770477047000010B5034601
:102F5000002200BF93F83C00012801D1022010BDDF
:102F6000012083F83C0000BF22F0FF00CC6840EA5B
:102F7000040222F440708C6840EA040222F480606B
:102F80004C6840EA040222F400600C6840EA040243
:102F900022F480500C6940EA040222F400504C698B
:102FA00040EA040222F480408C6A40EA040222F4DF
:102FB00070200C8B40EA04420D4C1868A0420ED1E0
:102FC00022F470008C8C40EA045222F08070CC69AC
:102FD00040EA040222F000700C6A40EA0402186819
:102FE000426400BF002083F83C0000BF00BFB6E78A
:102FF000002C014010B5034600BF93F83C000128A7
:1030000001D1022010BD012083F83C0000BF29B18E
:10301000102903D0202901D030290AD118688068EE
:1030200020F070001C68A0601868806808431C6865
:10303000A0601868406840F001001C686060186873
:10304000406820F004001C68606018684068104305
:103050001C6860601868C06820F400501C68E0605C
:103060001868C06840F020001C68E06000BF0020C5
:1030700083F83C0000BF00BFC4E7000030B587B054
:1030800004460D4614B9012007B030BD94F83D0048
:1030900028B9002084F83C00204600F067F80220A0
:1030A00084F83D00211D206800F026FFAB682968E8
:1030B0000322206800F0D0FF2068806920F00C0017
:1030C000216888612068806969680843216888618F
:1030D0002068406840F0800021684860206880686F
:1030E00020F07000216888602068806840F040000F
:1030F00021688860206880681B49084021688860D2
:103100002068806840F004002168886000200490F6
:103110000590702000900020069003900290E868CF
:1031200001906946206800F045FF2068406820F063
:103130007000216848602068406840F050002168B5
:103140004860012084F8480084F83E0001213F20B7
:103150000155012084F8440045200155012084F8E0
:103160003D00002090E70000F8FFFEFF70470000E0
:103170002DE9F047044694F83E603F20075D94F83F
:103180004480452010F80490012E07D1012F05D16D
:10319000B8F1010F02D1B9F1010F02D00120BDE851
:1031A000F087022084F83E0002213F2001550220D2
:1031B00084F84400452001552068C06840F00200B2
:1031C0002168C86001220021206800F0D7FE124962
:1031D0002068884207D02068B0F1804F03D00F49A3
:1031E0002068884210D1206880680D4900EA0105F6
:1031F000062D0FD0B5F5803F0CD02068006840F058
:1032000001002168086005E02068006840F00100C6
:10321000216808600020C2E7002C01400040014006
:103220000700010030B502460B4600BF92F83C0093
:10323000012801D1022030BD012082F83C0000BFEE
:10324000022082F83D001068416810688468154DBE
:103250001068A84203D121F470015868014321F09D
:10326000700118680143106841600E4D1068A84253
:1032700007D01068B0F1804F03D00B4D1068A84202
:1032800005D124F08004986804431068846001200C
:1032900082F83D0000BF002082F83C0000BF00BF64
:1032A000C9E70000002C01400040014010B5044671
:1032B0000CB9012010BD94F83D0028B9002084F815
:1032C0003C00204600F02AF8022084F83D00211D31
:1032D000206800F011FE012084F8480000BF84F847
:1032E0003E0001213F20015540200155412001555C
:1032F000422001554320015500BF00BF012084F842
:10330000440045200155462001554720015500BF86
:10331000012084F83D000020CCE7000010B586B005
:103320000446142101A8FCF7A7FF444920688842FD
:1033300031D100BF4248806940F400604049886153
:103340000846806900F40060009000BF00BF00BF25
:103350000846406940F4003048610846406900F47E
:103360000030009000BF00BFC814019002200290FE
:103370000020039004900C20059001A94FF090408C
:10338000FEF7FAFB002211461920FEF75DFD192019
:10339000FEF74AFD50E02068B0F1804F4CD100BFED
:1033A0002748C06940F001002549C8610846C06946
:1033B00000F00100009000BF00BF00BF0846406958
:1033C00040F4802048610846406900F48020009065
:1033D00000BF00BF00BF0846406940F400304861AC
:1033E0000846406900F40030009000BF00BF4FF471
:1033F000816001900220029000200390049001203F
:10340000059001A90F48FEF7B7FB4FF4004001906B
:10341000022002900020039004900120059001A951
:103420004FF09040FEF7A8FB002211461C20FEF74B
:103430000BFD1C20FEF7F8FC06B010BD002C01406F
:1034400000100240000400482DE9F04104460D46FA
:1034500000BF94F83C00012802D10220BDE8F081B1
:10346000012084F83C0000BF022084F83D00206861
:1034700086683748064026F47F46206886602868BC
:10348000502833D00CDC202850D004DC00284BD04E
:10349000102851D149E0302849D040284CD139E09A
:1034A00060282DD0702807D0B0F5805F03D0B0F52C
:1034B000005F41D10DE040E0D5E902136A68206861
:1034C00000F06DFD2068866846F07706206886600B
:1034D00033E0D5E902136A68206800F060FD2068D7
:1034E000806840F480402168886026E0EA68696866
:1034F000206801F019F85021206800F0B3FF1CE0AB
:10350000EA686968206801F022F86021206800F00C
:10351000A9FF12E0EA686968206801F005F8402117
:10352000206800F09FFF08E000BF00BF00BF2968CF
:10353000206800F097FF00E000BF00BF012084F882
:103540003D0000BF002084F83C0000BF00BF85E7BD
:1035500088FFFEFF704710B5044620680069C0F37D
:103560004000D8B12068C068C0F34000B0B16FF02F
:10357000020021680861012020772068806900F03E
:10358000030018B12046FFF7E5FF05E0204600F0F4
:10359000EDF8204600F0D7F9002020772068006978
:1035A000C0F38000D8B12068C068C0F38000B0B11B
:1035B0006FF004002168086102202077206880698C
:1035C00000F4407018B12046FFF7C4FF05E0204624
:1035D00000F0CCF8204600F0B6F9002020772068F3
:1035E0000069C0F3C000D8B12068C068C0F3C00053
:1035F000B0B16FF0080021680861042020772068CE
:10360000C06900F0030018B12046FFF7A3FF05E0F2
:10361000204600F0ABF8204600F095F90020207716
:1036200020680069C0F30010D8B12068C068C0F3FA
:103630000010B0B16FF010002168086108202077F9
:103640002068C06900F4407018B12046FFF782FF7F
:1036500005E0204600F08AF8204600F074F90020CA
:1036600020772068006900F0010058B12068C06828
:1036700000F0010030B16FF00100216808612046C0
:1036800000F0F2F920680069C0F3C01058B120685A
:10369000C068C0F3C01030B16FF0800021680861CD
:1036A0002046FFF750FC20680069C0F3002058B1A5
:1036B0002068C068C0F3C01030B16FF4807021681A
:1036C00008612046FFF73EFC20680069C0F38010C7
:1036D00058B12068C068C0F3801030B16FF040006E
:1036E00021680861204600F0F6F920680069C0F3FF
:1036F000401058B12068C068C0F3401030B16FF07E
:103700002000216808612046FFF71EFC10BD000064
:1037100010B586B00446142101A8FCF7ADFD11498F
:10372000206888421CD100BF0F48406940F4003037
:103730000D4948610846406900F40030009000BF20
:1037400000BF4FF4E060019002200290002003903F
:1037500004900620059001A94FF09040FEF70CFA66
:1037600006B010BD002C014000100240704770B53B
:1037700004460D46164600BF94F83C00012801D1CE
:10378000022070BD012084F83C0000BF0C2E51D0F7
:1037900005DC4EB1042E1ED0082E7AD133E0102E57
:1037A00060D0142EF9D175E02946206800F022FD82
:1037B0002068806940F0080021688861206880697D
:1037C00020F0040021688861206880692969084325
:1037D0002168886177E02946206800F0EBFB2068CB
:1037E000806940F40060216888612068806920F465
:1037F00080602168886120688069296940EA012029
:10380000216888615FE02946206800F03FFD20685C
:10381000C06940F008002168C8612068C06920F0D4
:1038200004002168C8612068C069296908432168CB
:10383000C86148E02946206800F078FD2068C0692A
:1038400040F400602168C8612068C06920F480608D
:103850002168C8612068C069296940EA012021689F
:10386000C86130E02946206800F096FD2068406D70
:1038700040F00800216848652068406D20F0040091
:10388000216848652068406D2969084321684865BA
:1038900019E017E02946206800F0B0FD2068406D6F
:1038A00040F40060216848652068406D20F4806025
:1038B000216848652068406D296940EA0120216837
:1038C000486500E000BF00BF00BF002084F83C0056
:1038D00000BF00BF55E710B504460CB9012010BD6C
:1038E00094F83D0028B9002084F83C00204600F000
:1038F00029F8022084F83D00211D206800F0FCFA20
:10390000012084F8480000BF84F83E0001213F20D8
:1039100001554020015541200155422001554320C9
:10392000015500BF00BF012084F844004520015527
:10393000462001554720015500BF012084F83D0075
:103940000020CCE77047704770B504460D4615B9A6
:1039500094F83E0015E0042D02D13F20005D10E0F8
:10396000082D02D14020005D0BE00C2D02D141203A
:10397000005D06E0102D02D14220005D01E04320F1
:10398000005D012801D0012070BD1DB9022084F81E
:103990003E001AE0042D03D102213F20015514E01E
:1039A000082D03D10221402001550EE00C2D03D13A
:1039B00002214120015508E0102D03D102214220AF
:1039C000015502E0022143200155012229462068C9
:1039D00000F0D4FA1F49206888420BD01E492068A5
:1039E000884207D01D492068884203D01C492068BE
:1039F000884201D1012000E0002028B12068406CFD
:103A000040F400402168486412492068884207D089
:103A10002068B0F1804F03D00F492068884210D150
:103A2000206880680F4900EA0106062E0FD0B6F51F
:103A3000803F0CD02068006840F0010021680860D9
:103A400005E02068006840F001002168086000205F
:103A50009AE70000002C0140004001400044014072
:103A60000048014007000100704770B504460D464C
:103A700000BF94F83C00012801D1022070BD012054
:103A800084F83C0000BF022084F83D00294620460F
:103A900000F0F2FC48B1012084F83D0000BF002096
:103AA00084F83C0000BF0120E8E72068C06820F0EF
:103AB00040002168C8602068C06820F48040216808
:103AC000C860012084F83D0000BF002084F83C005D
:103AD00000BF00BFD2E7704700BFFEE700B591B05E
:103AE00018210BA8FCF7C8FB282101A8FCF7C4FB90
:103AF0004FF0A0403A490860002048600021384853
:103B00008160012101614176002180F82010C162AD
:103B1000012181620021C1600221C161012180F87F
:103B2000301008214161002101764163FDF722FD3B
:103B300008B1FCF7DAFE02200B9001200C90002067
:103B40000E9006200D9000200F9010900BA9244895
:103B5000FDF7B2F908B1FCF7C8FE08200B9002206F
:103B60000C900BA91E48FDF7A7F908B1FCF7BDFEA4
:103B7000012001900290002004900320079004206F
:103B8000039040200A900420099000208DF8210025
:103B900001208DF8200000208DF82200069005906D
:103BA00001A90F48FCF7A4FE08B1FCF79EFE072010
:103BB00001900220029001A90948FCF799FE08B182
:103BC000FCF793FE062001900320029001A904480F
:103BD000FCF78EFE08B1FCF788FE11B000BD0000B6
:103BE0009401002008B500BF0A48406940F0010078
:103BF000084948610846406900F00100009000BF94
:103C000000BF002211460B20FEF71EF90B20FEF725
:103C10000BF908BD0010024000B587B0142102A8BE
:103C2000FCF72AFB00BF2448406940F48000224989
:103C300048610846406900F48000019000BF00BF61
:103C400000BF0846406940F40020486108464069CA
:103C500000F40020019000BF00BF00BF084640698B
:103C600040F4003048610846406900F4003001909B
:103C700000BF00BF00BF0846406940F48020486193
:103C80000846406900F48020019000BF00BF002278
:103C90004FF4E0510948FEF755F84FF4E050029018
:103CA0000120039000200490059002A90348FDF72D
:103CB00063FF07B000BD000000100240000800488C
:103CC00000B59BB0142116A8FCF7D6FA002013907B
:103CD000149015901C210CA8FCF7CEFA2C2101A8F9
:103CE000FCF7CAFA42484349086000204860202196
:103CF000404881604FF41661C1604FF480710161EA
:103D00000121416100218161FFF7D0FA08B1FCF780
:103D1000ECFD3848FFF7DFFD08B1FCF7E6FD0620B3
:103D200016901020179016A93248FFF79EFE08B192
:103D3000FCF7DBFD7020139000201490159013A960
:103D40002C48FFF76FFA08B1FCF7CFFD60200C900C
:103D50004FF496600D9000200E900F9010901190EF
:103D6000129000220CA92348FFF701FD08B1FCF7CF
:103D7000BCFD04220CA91F48FFF7F9FC08B1FCF7B1
:103D8000B4FD08220CA91B48FFF7F1FC08B1FCF7B1
:103D9000ACFD70200C9040F65B100D900C220CA92D
:103DA0001448FFF7E4FC08B1FCF79FFD4FF40060F6
:103DB0000190401002908010039000200490059024
:103DC0004FF40050069000200790089009900720BB
:103DD0000A9000200B9001A90648FFF7B7F808B138
:103DE000FCF783FD0348FFF793FC1BB000BD000008
:103DF000002C01402802002000B58BB00020079065
:103E0000089009900A900390049005900690009005
:103E1000019002904FF080401A49086000204860ED
:103E2000002118488160491EC16000210161816143
:103E3000FFF73CFA08B1FCF758FD4FF480500790AB
:103E400007A91048FFF700FB08B1FCF74EFD002062
:103E5000039004900B2005900020069003A90948C8
:103E6000FFF70CF908B1FCF740FD5020009000204E
:103E7000029069460348FFF7D5F908B1FCF735FD14
:103E80000BB000BD7402002000BFFEE700BFFEE7DC
:103E90007047704710B5FDF761FF10BD034800681B
:103EA00040F47000014908607047000088ED00E0B0
:103EB00010B50248FFF74FFB10BD0000280200209C
:103EC00010B50A48007848B14FF08040406B08496F
:103ED00009684860012006490968C8700548FFF76D
:103EE0003AFB01200149087010BD00004400002089
:103EF000240000207402002010B502681B4B984279
:103F000002D0B0F1804F03D122F070024B681A4307
:103F1000164B98420BD0B0F1804F08D0144B98420A
:103F200005D0144B984202D0134B984203D122F48F
:103F30004072CB681A4322F080034C6943EA0402C2
:103F400002608B68C3620B688362084B984208D09A
:103F5000074B984205D0074B984202D0064B984237
:103F600001D10B6903630123436110BD002C0140A3
:103F700000400140004401400048014030B501F0DC
:103F80001F05012404FA05F3046A9C430462046AD1
:103F900001F01F0502FA05F52C43046230BD30B56F
:103FA0000C46816821F47F4142EA032525432943D9
:103FB000816030BD30B5056A25F010050562026AE2
:103FC000436884691F4D2C4024F440740D6844EA12
:103FD000052422F020028D6842EA05121A4DA842FB
:103FE00000D10BE0194DA84200D100BF184DA842E6
:103FF00000D100BF174DA84207D106E022F0800291
:10400000CD6842EA051222F040020F4DA84208D0C6
:104010000E4DA84205D00E4DA84202D00D4DA8422B
:1040200009D123F4806323F400634D6943EA8503D7
:104030008D6943EA8503436084614D68856302624C
:1040400030BD0000FF8FFFFE002C0140004001400A
:10405000004401400048014070B50C461546066A10
:1040600026F0010606628169026A104EB04205D050
:10407000B0F1804F02D00E4EB04201D1012600E0D7
:1040800000261EB121F00301294301E041F00101A6
:1040900021F0F001F02606EA0316314322F00A026D
:1040A00004F00A0632438161026270BD002C0140B7
:1040B0000040014000BFFEE700B59DB0282113A8D5
:1040C000FCF7DAF814210EA8FCF7D6F8342101A881
:1040D000FCF7D2F8012013900004149000201590F2
:1040E0000120179002201A90C1031B914FF4E01198
:1040F0001C9113A8FEF7FAF908B1FCF7F6FB0F20A4
:104100000E9002200F90002010904FF480601190CC
:104110000020129002210EA8FEF742F808B1FCF729
:10412000E4FB4FF484500190002009904FF480701C
:10413000079001A8FDF7DAFE08B1FCF7D6FB1DB029
:1041400000BD00009FED150A80ED000A9FED130AE7
:1041500080ED010A9FED120A80ED020A9FED110A1F
:1041600080ED030A9FED0D0A80ED040A9FED0E0A13
:1041700080ED050A80619FED0A0A80ED070A9FED38
:10418000090A80ED080A9FED050A80ED090A9FEDF6
:10419000030A80ED0A0A011DC16270470000000099
:1041A000295C8F3D0AD7233C0000FA4330B590F8D4
:1041B00040500124AC40C56B6C6004686360446887
:1041C000102C04D10468A2600468E16003E0046874
:1041D000A1600468E26030BD054A0168891A1422B2
:1041E000B1FBF2F18900016401490839C1637047EC
:1041F0000800024030B5056A25F001050562026A33
:10420000436884691C4D2C4024F003040D682C4342
:1042100022F002028D682A43184DA84200D10BE01B
:10422000174DA84200D107E0164DA84200D103E087
:10423000154DA84206D100BF22F00802CD682A43DE
:1042400022F004020D4DA84208D00D4DA84205D021
:104250000C4DA84202D00C4DA84207D123F4807324
:1042600023F400734D692B438D692B4343608461B4
:104270004D684563026230BD8FFFFEFF002C014098
:1042800000400140004401400048014030B5056A4B
:1042900025F480750562026A4368C4691E4D2C408E
:1042A00024F003040D682C4322F400728D6842EA66
:1042B00005221A4DA84200D10BE0194DA84200D1A9
:1042C00000BF184DA84200D100BF174DA84207D12A
:1042D00006E022F40062CD6842EA052222F4806200
:1042E0000E4DA84208D00E4DA84205D00D4DA84253
:1042F00002D00D4DA84209D123F4805323F400537A
:104300004D6943EA05138D6943EA05134360C461AF
:104310004D68C563026230BD8FFFFEFF002C014077
:1043200000400140004401400048014030B5056AAA
:1043300025F480550562036A4468C269114D2A401C
:1043400022F440720D6842EA052223F400538D687E
:1043500043EA05330C4DA84208D00C4DA84205D0C5
:104360000B4DA84202D00B4DA84204D124F4804446
:104370004D6944EA85144460C2614D680564036276
:1043800030BD0000FF8FFFFE002C014000400140C7
:10439000004401400048014030B5056A25F48035ED
:1043A0000562026A4368446D0F4D2C400D682C4332
:1043B00022F400320D8942EA05420C4DA84208D091
:1043C0000B4DA84205D00B4DA84202D00A4DA84281
:1043D00004D123F480334D6943EA052343604465E7
:1043E0004D688565026230BD8FFFFEFF002C0140E5
:1043F00000400140004401400048014030B5056ADA
:1044000025F480150562026A4368446D104D2C4006
:104410000D6844EA052422F400120D8942EA05528F
:104420000C4DA84208D00C4DA84205D00B4DA84217
:1044300002D00B4DA84204D123F480234D6943EAF6
:104440008523436044654D68C565026230BD000048
:10445000FF8FFFFE002C014000400140004401405E
:10446000004801400A46816821F0700142F00703CC
:1044700019438160704700002DE9F04105460C4664
:104480002868866826F0700660680643254806405E
:104490002068064328688660606800F00F010029E4
:1044A0003BD10011082838D2DFE800F0333435362C
:1044B0000B272D04D4E90313A2682868FFF76FFDCA
:1044C0002CE02068052802D10120BDE8F081286891
:1044D000D0F820802868006A20F00100296808626E
:1044E0002868876927F0F007206947EA00172868DD
:1044F00087612868C0F8208010E02269A1682868D8
:1045000000F012F80AE02269A168286800F01FF89C
:1045100004E000BF00BF00BF00E000BF00BF0020FC
:10452000D3E70000F8FFFEFF30B50B461446026AE1
:10453000056A25F001050562816921F0F00141EA73
:10454000041122F00A021A438161026230BD30B5C3
:104550000B461446056A25F0100505628169026A5A
:1045600021F4704141EA043122F0A00242EA031230
:104570008161026230BD000070B5044600252068EC
:10458000806800F00300012806D12068006800F070
:10459000010008B1012000E0002088BB206880688D
:1045A0001849084008B9012000E0002048B9206CF3
:1045B00040F010002064606C40F001006064012055
:1045C00070BD2068806840F0010021688860FDF7B8
:1045D000BFFB05460EE0FDF7BBFB401B022809D9D7
:1045E000206C40F010002064606C40F001006064BA
:1045F0000120E5E72068006800F001000028EAD00B
:104600000020DDE73F00008070B5044600252068EB
:10461000806800F00300012806D12068006800F0DF
:10462000010008B1012000E0002080B3206880680C
:1046300000F00D00012800D100E0002050B100BFC3
:104640002068806840F002002168886003202168AB
:10465000086009E0206C40F010002064606C40F0BD
:1046600001006064012070BDFDF772FB05460FE09C
:10467000FDF76EFB401B02280AD9206C40F01000A9
:104680002064606C40F0010060640120EBE705E00D
:104690002068806800F001000028E9D10020E2E7EE
:1046A00070B505466C6A206C40F040002064606C78
:1046B00040F0040060642046FCF702FE70BD70B557
:1046C00005466C6A206C00F05000D0B9206C40F4B4
:1046D000007020642068C06800F4406068B9607EA3
:1046E00058B9206C20F480702064206C00F4805055
:1046F00018B9206C40F0010020642046FCF7DEFD74
:1047000003E0A06B016B2846884770BD70B5044676
:10471000656A2846FCF7D3FD70BD000010B500287F
:1047200004DB0A07130E054A135406E00A07140EA9
:10473000034A00F00F031B1FD45410BD00E400E037
:1047400018ED00E002480068C0F302207047000046
:104750000CED00E010B52DED068B04469FEDFE0A32
:10476000F0EE409A9FEDFC0AB0EE408A9FEDFA0A07
:10477000F0EE408A9FEDF80AB0EE409A94ED4DAA13
:10478000DFEDF6AAF0EE6A0AB0EE4A0A00F0ECFE9F
:10479000DFEDF30A20EE200AF0EE409A94ED4D0A88
:1047A000B5EEC00AF1EE10FA3FDB94ED4D0ADFEDF5
:1047B000EB0AB4EEE00AF1EE10FA36D294ED332AA9
:1047C000F2EE082AC2EE221A94ED342ADFEDE52A31
:1047D00042EEC21AB0EE611AD4ED341A9FEDE22A0D
:1047E00061EE821AB0EE610A71EE001AB7EE002A8D
:1047F00072EE611AF0EE610AB0EE002AC0EE821A83
:1048000071EE811A71EE801AB0EE618AB0EE002A64
:10481000C0EE821A71EE801AF0EE618AF0EE001A94
:1048200080EEA12AB0EE429A7EE194ED4D0ADFEDD2
:10483000CB0AB4EEE00AF1EE10FA45DB94ED4D0A36
:10484000DFEDCA0AB4EEE00AF1EE10FA3CD294EDC4
:10485000332AF2EE082AC2EE221A94ED342ADFED52
:10486000C12A42EE821AB0EE610A94ED332AF2EECA
:10487000082AC2EE221A94ED342ADFEDBA2A52EE4B
:10488000821AB0EE611A70EE011AB7EE002A72EECB
:10489000611AF0EE610AB0EE002AC0EE821A71EEE3
:1048A000801AB0EE618AB0EE002AC0EE821A71EE74
:1048B000801A71EE811AF0EE618AF0EE001A80EE35
:1048C000A12AB0EE429A2FE194ED4D0ADFEDA70A3E
:1048D000B4EEE00AF1EE10FA3FDB94ED4D0ADFEDA5
:1048E000A40AB4EEE00AF1EE10FA36D2D4ED341A8E
:1048F0009FED9D2A61EE821AB0EE611A94ED332A83
:10490000F2EE082AC2EE221A94ED342ADFED992A3B
:1049100052EE821AB0EE610A71EE001AB7EE002A6A
:1049200072EE611AF0EE610AF0EE001A80EEA12A32
:10493000B0EE428AB0EE002AC0EE821A71EE811A01
:1049400071EE801AF0EE618AB0EE002AC0EE821A93
:1049500071EE801AB0EE619AE6E094ED4D0ADFED5B
:10496000840AB4EEE00AF1EE10FA3FDB94ED4D0A52
:10497000DFED810AB4EEE00AF1EE10FA36D294EDE2
:10498000332AF2EE082AC2EE221A94ED342ADFED21
:10499000752A52EE821AB0EE610AD4ED341A9FEDF8
:1049A000772A61EE821AB0EE611A70EE011AB7EE44
:1049B000002A72EE611AF0EE610AF0EE001A80EE43
:1049C000A12AB0EE428AB0EE002AC0EE821A71EE41
:1049D000801AF0EE618AB0EE002AC0EE821A71EE03
:1049E000801A71EE811AB0EE619A9DE094ED4D0A45
:1049F000DFED610AB4EEE00AF1EE10FA47DB94ED68
:104A00004D0ADFED5F0AB4EEE00AF1EE10FA3ED295
:104A100094ED332AF2EE082AC2EE221A94ED342ADB
:104A2000DFED502A52EEC21AB0EE611A94ED332A2D
:104A3000F2EE082AC2EE221A94ED342ADFED492A5A
:104A400052EE821AF1EE611AB0EE610A71EE001AAE
:104A5000B7EE002A72EE611AF0EE610AB0EE002A9B
:104A6000C0EE821A71EE801AB0EE618AF0EE001A82
:104A700080EEA12AF0EE428AB0EE002AC0EE821A41
:104A800071EE811A71EE801AB0EE619A4CE094EDED
:104A90004D0ADFED3B0AB4EEE00AF1EE10FA41DB1D
:104AA00094ED4D0ADFED370AB4EEE00AF1EE10FAAC
:104AB00038D2D4ED341A9FED312A61EE821AB0EE6D
:104AC000610A94ED332AF2EE082AC2EE221A94ED1E
:104AD000342ADFED282A52EE821AF1EE611AB0EE86
:104AE000611A70EE011AB7EE002A72EE611AF0EE4A
:104AF000610AB0EE002AC0EE821A71EE801A71EEE1
:104B0000811AB0EE618AF0EE001A80EEA12AF0EE72
:104B1000428AB0EE002AC0EE821A71EE801AB0EE20
:104B2000619A01E001202070B6EE000A38EE400ADA
:104B3000DFED150A60EE200A144890ED001A9FED93
:104B4000120A00EE810ABCEEC00A84ED030A104985
:104B5000E068096888421DE0000000000000704223
:104B60002EFA8E3C1D13453D1D13C53D0000F0423D
:104B7000000034431D1345BD000070431D13C5BD27
:104B8000000096430000B443000096442800002033
:104B90002C2C014002D92648006800E0E068E06063
:104BA000B6EE000A38EEC00A5FED090A60EE200A90
:104BB000204890ED001A1FED0C0A00EE810ABCEEB1
:104BC000C00A84ED040A1A4920690968884202D99A
:104BD0001748006800E020692061B6EE000A39EE4F
:104BE000400A5FED170A60EE200A124890ED001AA5
:104BF0001FED1B0A00EE810ABCEEC00A84ED050A17
:104C00000B4960690968884202D90948006800E0D8
:104C10006069606106490831E0680860091D206923
:104C20000860091D60690860BDEC068B10BD0000BE
:104C30002C2C0140280000209FEDFE3AB0EE430AE4
:104C40009FEDFC3AF0EE430A9FEDFA3AB0EE431ABC
:104C50009FEDF83AF0EE431A9FEDF63AB0EE432A94
:104C60009FEDF43AF0EE432A90ED343AD0ED333A2A
:104C70009FEDF15A05EE233AB0EE434A90ED343AF7
:104C8000D0ED333A9FEDED5A05EE233AF0EE434A6C
:104C900090ED4D3AB5EEC03AF1EE10FA0BDB90ED27
:104CA0004D3ADFEDE73AB4EEE33AF1EE10FA02D214
:104CB0000321017267E090ED4D3ADFEDE13AB4EE89
:104CC000E33AF1EE10FA0BDB90ED4D3ADFEDDD3A11
:104CD000B4EEE33AF1EE10FA02D20121017252E091
:104CE00090ED4D3ADFEDD73AB4EEE33AF1EE10FA3B
:104CF0000BDB90ED4D3ADFEDD43AB4EEE33AF1EE52
:104D000010FA02D2052101723DE090ED4D3ADFED3F
:104D1000CE3AB4EEE33AF1EE10FA0BDB90ED4D3AF9
:104D2000DFEDCA3AB4EEE33AF1EE10FA02D2042112
:104D3000017228E090ED4D3ADFEDC43AB4EEE33A6B
:104D4000F1EE10FA0BDB90ED4D3ADFEDC13AB4EE27
:104D5000E33AF1EE10FA02D20621017213E090ED6F
:104D60004D3ADFEDBB3AB4EEE33AF1EE10FA0ADB6E
:104D700090ED4D3ADFEDB73AB4EEE33AF1EE10FACA
:104D800001D2022101729FEDB43AC4EE033AC0EDA4
:104D9000473A9FEDB13AC4EE833AC0ED483A90ED00
:104DA000343AF0EE003A23EE233ADFEDAB3A83EEED
:104DB000235A80ED495A017A082905D2DFE801F02B
:104DC0000405305D8AB7E4FD10E190ED495AB0EE7C
:104DD000453A90ED485AF0EE453AB7EE005A35EEB6
:104DE000435A35EE635AF1EE005A85EE256AB0EE6D
:104DF000460A30EE435AF0EE005A85EE256AF0EE90
:104E0000460A30EEE35AF0EE005A85EE256AB0EE1F
:104E1000461AF0EE601AB0EE402AF0EE412AE5E0C4
:104E200090ED485AB0EE453A90ED475AB1EE455AEA
:104E3000F0EE453AB7EE005A35EE435A35EE635A76
:104E4000F1EE005A85EE256AB0EE460A30EE435A7E
:104E5000F0EE005A85EE256AF0EE460A30EEE35A8F
:104E6000F0EE005A85EE256AB0EE461AF0EE401AD2
:104E7000B0EE412AF0EE602AB8E090ED495AB1EE6A
:104E8000455AB0EE453A90ED475AF0EE453AB7EE46
:104E9000005A35EE435A35EE635AF1EE005A85EE6C
:104EA000256AB0EE460A30EE435AF0EE005A85EE1F
:104EB000256AF0EE460A30EEE35AF0EE005A85EE2F
:104EC000256AB0EE461AF0EE401AB0EE602AF0EE17
:104ED000412A8BE090ED475AB1EE455AB0EE453A83
:104EE00090ED495AF0EE453AB7EE005A35EE435A86
:104EF00035EE635AF1EE005A85EE256AB0EE460AA9
:104F000030EE435AF0EE005A85EE256AF0EE460A7E
:104F100030EEE35AF0EE005A85EE256AB0EE461AFE
:104F2000F0EE411AB0EE602AF0EE402A5EE090ED1D
:104F3000475AB0EE453A90ED485AB1EE455AF0EE78
:104F4000453AB7EE005A35EE435A35EE635AF1EE64
:104F5000005A85EE256AB0EE460A30EE435AF0EE6E
:104F6000005A85EE256AF0EE460A30EEE35AF0EE7E
:104F7000005A85EE256AB0EE461AF0EE411AB0EE00
:104F8000402AF0EE602A31E090ED485AB1EE455AE1
:104F9000B0EE453A90ED495AB1EE455AF0EE453A39
:104FA000B7EE005A35EE435A35EE635AF1EE005A29
:104FB00085EE256AB0EE460A00E016E030EE435A70
:104FC000F0EE005A85EE256AF0EE460A30EEE35A1E
:104FD000F0EE005A85EE256AB0EE461AF0EE601A41
:104FE000B0EE412AF0EE402A00E000BF00BFB6EE6E
:104FF000003A31EEC33ADFED193A63EE233A18492D
:1050000091ED005A9FED153A03EE853AF0EE431A02
:1050100014490968491E03EE101AB8EE433AB4EE7B
:10502000E13AF1EE10FA22D20E490968491E03EE68
:10503000101A19E0000000002DB2DDBF2DB2DD3FD7
:10504000000070420000F042000034430000704352
:10505000000096430000B44377BE874100009644A9
:10506000280000202C2C0140B8EE433A01E0B0EEBD
:10507000613AF0EE431AB6EE003A32EE433A5FED93
:10508000093A63EE233A354991ED005A1FED0D3A86
:1050900003EE853AB0EE432A31490968491E03EE12
:1050A000101AB8EE433AB4EEC23AF1EE10FA07D253
:1050B0002B490968491E03EE101AB8EE433A01E085
:1050C000B0EE423AB0EE432AB6EE003A32EEC33AC0
:1050D0005FED1E3A63EE233A204991ED005A1FED31
:1050E000213A03EE853AF0EE432A1D490968491E2C
:1050F00003EE101AB8EE433AB4EEE23AF1EE10FACB
:1051000007D217490968491E03EE101AB8EE433A50
:1051100001E0B0EE623AF0EE432ABCEEE13A80EDF7
:105120004F3ABCEEC23A80ED503ABCEEE23A80ED26
:10513000513ABCEEE13A13EE101A094A08321160F6
:10514000BCEEC23A13EE101A121D1160BCEEE23A28
:1051500013EE101A121D1160704700002800002085
:105160002C2C014030B52DED068B9BB00446D4E9C4
:105170000712A06918AB07C39DED180ADDED190AE7
:1051800030EE200AB1EE400A8DED1A0A9DED180AA4
:105190008DED160A9FED690B00F006FBB0EE409A0C
:1051A000F0EE609A9DED180ADDED190AB0EE001AD6
:1051B00001EE200A10EE101A0846FBF7E8F841EC61
:1051C0001A0B53EC192BFBF773F841EC180BFBF798
:1051D000F1F817909DED160ADDED170A84ED220A0D
:1051E000C4ED230A0FAD04F18000C1688068CDE9E9
:1051F0000D0194ED4D0AB0EE408A01A8FEF7A2FF22
:105200009FED500A28EE000ADFED4F0A80EE201ACB
:10521000B0EE418AB0EE480A00F0D2F8DDED0D0A9A
:1052200060EE208AB0EE480A00F0D6F8DDED0E0AF6
:1052300040EE208ACDED028AB0EE480A00F0CCF8AC
:10524000B1EE400ADDED0D0A60EE208AB0EE480AAC
:1052500000F0B6F8DDED0E0A40EE208ACDED018AB1
:10526000302201A92846FAF7EEFF00BF30220FA92D
:1052700004F19000FAF7E7FF04F1900081694069BA
:10528000CDE9000104F1900008300EC8204600F07E
:105290005DF884ED350A04F19000C16A806ACDE9B9
:1052A000000104F190001C300EC8204600F04EF8BA
:1052B00084ED360A302204F1D4010FA8FAF7C3FFB7
:1052C00094ED4D0AB0EE408A9FED1E0A28EE000ACA
:1052D000DFED1D0A80EE201AB0EE418AB0EE480ADA
:1052E00000F06EF8DDED100A60EE208AB0EE480A9C
:1052F00000F072F8DDED0F0A40EE608ACDED0D8A08
:10530000B0EE480A00F068F8DDED100A60EE208A81
:10531000B0EE480A00F054F8DDED0F0A40EE208AA6
:10532000CDED0E8A9DED0D0ADDED0E0A84ED330AFA
:10533000C4ED340A1BB0BDEC068B30BD000000008C
:1053400000000840D00F4940000034430FB49DEDE9
:10535000040A059991ED001A30EE410AF0EE400A78
:105360009DED010A20EE200A04B0704710B50446F6
:105370000020A070E070606004F19000FEF7E2FE93
:10538000A0F1900404F1D400FEF7DCFEA0F1D404F7
:10539000B7EE000A84ED4A0A9FED070A84ED4B0A36
:1053A000B2EE080A84ED4C0A9FED030A84ED4D0A23
:1053B00002480460204610BD0000000024000020C8
:1053C00010B52DED028BB0EE408AB0EE480A00F029
:1053D00023F8BDEC028B10BD10B52DED028BB0EEA5
:1053E000408AB0EE480A00F017F9BDEC028B10BD00
:1053F0004100080218BF04200A0E18BF40F0010047
:105400004FF07F4232EA010108BF40F0020001285C
:1054100008BF05207047000010EE101A08B5444A76
:105420006846B2EB410F28D94FF0E640B0EB410F90
:1054300094BF00204FF0FF3000900098002861DBFF
:1054400060EE000A10F0010F45D010F0020FDFED02
:10545000391A9FED391A00EEE11ADFED381A40EEE5
:10546000811A21EEA01AF0EE400A40EE010A08BFB0
:10547000F1EE600AB0EE600A08BD314B21F0004247
:1054800093423CD911F0004FDFED2E0A20EE201A96
:10549000DFED2D0A19BF31EE601A71EE200A31EEF0
:1054A000201A71EE600ABDEEE01A11EE100A9FEDAF
:1054B000271A00F0030000EEC10A9FED251A0090A4
:1054C00000EEC10A9FED231A00EEC10A9FED221AD9
:1054D00000EEC10AB1E79FED211A9FED210A10F0FD
:1054E000020F00EE810A9FED1F1A00EE801AB7EE40
:1054F000000A00EE810A18BFB1EE400A08BD00F0B4
:10550000A3F99AE710EE100A4000B0F17F4F3CBFBC
:10551000B7EE000A08BD07D14FF0010000F04EFAC7
:10552000BDE8084000F080B9BDE8084000F079B956
:10553000B61F927E336D4C39DA82083CA0AA2ABE8F
:10554000490E494683F9223F0000004B0000C93F45
:1055500000A0FD390020A2331A61342CB93AB2BA46
:10556000CA9F2A3DDDFFFFBE10B52DED028BF0EE88
:10557000408A18EE900AB0EE608A20F00040C0F138
:10558000FF40C00F07D118EE100A20F00040C0F114
:10559000FF40C00F2BD018EE101A18EE900AFAF741
:1055A0006BFF00EE100A10EE100A6FEAD05010F0F8
:1055B000FF0F04BFBDEC028B10BD18EE900A00F087
:1055C000004110EE100A00F00040814204BFBDEC23
:1055D000028B10BD18EE101A10EE100ABDEC028BF3
:1055E00061F31E0000EE900A30EE600A10BD18EE66
:1055F000900A4FF07F41B1EB400F1CBF18EE100A2C
:105600005FEA4000C7D1012000F0D8F9BDEC028B61
:10561000BDE8104000F008B900B510EE101A2DEDED
:10562000028B81B0524A6846B2EB410F2ED94FF03F
:10563000E640B0EB410F94BF00204FF0FF300090E8
:105640000098B0EE408A00286ADB10F0010F4BD0C2
:1056500068EE080A9FED471A9FED470A00EE810A9F
:105660009FED461A10F0020F00EE801AB7EE000A06
:1056700000EE810A02BF01B0BDEC028B00BD00BF8D
:1056800001B0B1EE400ABDEC028B00BD3C4B21F0F5
:105690000042934241D911F0004FDFED3A0A20EE6B
:1056A000201ADFED390A19BF31EE601A71EE200AB7
:1056B00031EE201A71EE600ABDEEE01A11EE100A0A
:1056C0009FED321A00F0030000EEC10A9FED301A80
:1056D000009000EEC10A9FED2F1A00EEC10A9FED67
:1056E0002E1A00EEC10AABE728EE080A9FED2B1A2E
:1056F000DFED2B0A10F0020F40EE410A9FED291A50
:1057000000EE201A61EE000AB0EE480A08EE200A08
:10571000B6D101B0BDEC028B00BD00F095F88FE76B
:1057200018EE100A4000B0F17F4F0DD218EE100AAB
:10573000FFF75EFE042808BF00F07EF8B0EE480ACE
:1057400001B0BDEC028B00BD09D1012000F036F99B
:1057500001B0BDEC028B5DF804EB00F065B801B060
:10576000B0EE480ABDEC028B5DF804EB00F059B8CE
:10577000B61F927EB93AB2BACA9F2A3DDDFFFFBE7C
:10578000490E494683F9223F0000004B0000C93F03
:1057900000A0FD390020A2331A61342C336D4C393E
:1057A000DA82083CA0AA2ABE00B52DED048BB0EE2B
:1057B000409AF0EE609A83B051EC190BFAF7E2FED2
:1057C00041EC180B18EE100A18EE901A8DED008BB4
:1057D000002818BF0120084320F00040C0F17F607E
:1057E00000F1E040C00F14D019EE101A19EE900A23
:1057F0008DED009B002918BF0121084320F00040D7
:10580000C0F17F6000F1E040C00F04BF012000F054
:10581000D5F8B0EE480A03B0F0EE680ABDEC048B90
:1058200000BD30EE000A7047DFED020A80EEA00AEC
:1058300070470000000000009FED020A20EE000A01
:1058400070470000000000102DE9F0014FF07F428A
:10585000B2EB410F9FBF4FF0FF310160BDE8F00197
:1058600070474FF0004242EA0123C1F3C752783A31
:10587000551112F01F0C434CCCF120067C44C1F3AF
:10588000C752A2F178024FEA621204EB820254F886
:10589000254008BFD2E9015612D0556804FA0CF42D
:1058A00025FA06F73C43976805FA0CF527FA06F83F
:1058B000D26807FA0CFCF24045EA08054CEA0206F9
:1058C000A4FB034CA5FB0352A6FB03631D449D42AE
:1058D00034BF012600261319334416B1934202D96E
:1058E00003E0934201D2012200E00022624402F16F
:1058F000200C9206DC0C42EA443200EE102A5B03D4
:10590000DFED210AF8EEC01A00EE103A4FEA9C1CB7
:1059100011F0004FB8EE400AC0F800C020EE201A87
:1059200000EE105ADFED190AB8EE400A20EE200A08
:1059300071EE810A70EE800A10EE902A02F5006284
:105940006FF30B0200EE902A70EEE11A31EEC11AED
:10595000DFED101A30EE411A9FED0D0A20EE800A9D
:1059600001EE210A9FED0C1A00EE810A04BFBDE88A
:10597000F0017047CCF180510160BDE8F001B1EE5B
:10598000400A704784020000000000360000802CAE
:1059900022AAFD29DB0FC92F0000C92F02E008C889
:1059A000121F08C1002AFAD170477047002001E099
:1059B00001C1121F002AFBD1704700000149086095
:1059C000704700004800002010B50248FFF7CEFCE9
:1059D00010BD00004C000020FCF7CCF9FEF76CFB7A
:1059E000FEF71AF9FEF7FEF8FEF76AF9FEF704FA79
:1059F000FEF774F800202A490860022229492A4843
:105A0000FBF752FF2948FDF7B3FB2748FBF7E6F900
:105A100000224FF6FF712548FDF7ECFA00212448DB
:105A2000FDF792FF04212248FDF78EFF0821204850
:105A3000FDF78AFF0C211E48FDF786FF4FF4004159
:105A40004FF09040FCF776F9044608211948FCF71E
:105A500071F944EA40044FF480611648FCF76AF992
:105A600044EA80001449087019E0144890ED000AD7
:105A70000C48303880ED260A114890ED000A09489C
:105A8000303880ED2B0A0F4890ED000A0548303879
:105A900080ED290A0C480068401C0B490860E4E7C7
:105AA000242C01407C00002094010020740200207E
:105AB000280200200004004800000020040000200C
:105AC000080000200C000020100000200203040544
:105AD000060708090A0B0C0D0E0F10100102030433
